{
  "contractName": "Project",
  "abi": [
    {
      "constant": false,
      "inputs": [
        {
          "internalType": "uint256",
          "name": "num",
          "type": "uint256"
        }
      ],
      "name": "store",
      "outputs": [],
      "payable": false,
      "stateMutability": "nonpayable",
      "type": "function"
    },
    {
      "constant": false,
      "inputs": [
        {
          "internalType": "string",
          "name": "titolo",
          "type": "string"
        }
      ],
      "name": "storeT",
      "outputs": [],
      "payable": false,
      "stateMutability": "nonpayable",
      "type": "function"
    },
    {
      "constant": true,
      "inputs": [],
      "name": "retrieve",
      "outputs": [
        {
          "internalType": "uint256",
          "name": "",
          "type": "uint256"
        }
      ],
      "payable": false,
      "stateMutability": "view",
      "type": "function"
    },
    {
      "constant": true,
      "inputs": [],
      "name": "retrieveT",
      "outputs": [
        {
          "internalType": "string",
          "name": "",
          "type": "string"
        }
      ],
      "payable": false,
      "stateMutability": "view",
      "type": "function"
    }
  ],
  "bytecode": "0x608060405234801561001057600080fd5b50610384806100206000396000f3fe608060405234801561001057600080fd5b506004361061004c5760003560e01c80631acdf1ab146100515780632e64cec11461010c57806355e9da401461012a5780636057361d146101ad575b600080fd5b61010a6004803603602081101561006757600080fd5b810190808035906020019064010000000081111561008457600080fd5b82018360208201111561009657600080fd5b803590602001918460018302840111640100000000831117156100b857600080fd5b91908080601f016020809104026020016040519081016040528093929190818152602001838380828437600081840152601f19601f8201169050808301925050505050505091929192905050506101db565b005b6101146101f5565b6040518082815260200191505060405180910390f35b6101326101fe565b6040518080602001828103825283818151815260200191508051906020019080838360005b83811015610172578082015181840152602081019050610157565b50505050905090810190601f16801561019f5780820380516001836020036101000a031916815260200191505b509250505060405180910390f35b6101d9600480360360208110156101c357600080fd5b81019080803590602001909291905050506102a0565b005b80600190805190602001906101f19291906102aa565b5050565b60008054905090565b606060018054600181600116156101000203166002900480601f0160208091040260200160405190810160405280929190818152602001828054600181600116156101000203166002900480156102965780601f1061026b57610100808354040283529160200191610296565b820191906000526020600020905b81548152906001019060200180831161027957829003601f168201915b5050505050905090565b8060008190555050565b828054600181600116156101000203166002900490600052602060002090601f016020900481019282601f106102eb57805160ff1916838001178555610319565b82800160010185558215610319579182015b828111156103185782518255916020019190600101906102fd565b5b509050610326919061032a565b5090565b61034c91905b80821115610348576000816000905550600101610330565b5090565b9056fea265627a7a72315820fb950e4361c94f5af0622d40ed181927ab0f563f3ca81bbe1f770ca3a0897f9e64736f6c63430005100032",
  "source": "// SPDX-License-Identifier: GPL-3.0\n\npragma solidity >=0.4.22 <0.9.0;\n\n/**\n * @title Project\n * @dev Store & retrieve value in a variable\n */\n // Create 2 variables: insurance request name, amount required\ncontract Project {\n\n    uint256 number;\n    string name;\n\n    /**\n     * @dev Store value in variable\n     * @param num value to store\n     */\n\n      // Store 2 variables: insurance request name, amount required\n\n    function store(uint256 num) public {\n        number = num;\n        \n    }\n    \n    function storeT(string memory titolo) public {\n        name = titolo;\n    }\n\n    /**\n     * @dev Return value \n     * @return value of 'number'\n     */\n\n// Retrieve 2 variables: insurance request name, amount required\n    function retrieve() public view returns (uint256){\n        return number;\n    }\n    function retrieveT() public view returns (string memory){\n        return name;\n    }\n}",
  "sourcePath": "/home/ritrubia/blockchain-developer-bootcamp-final-project/contracts/Project.sol",
  "compiler": {
    "name": "solc",
    "version": "0.5.16+commit.9c3226ce.Emscripten.clang"
  },
  "schemaVersion": "3.4.3",
  "updatedAt": "2021-10-08T14:14:17.530Z",
  "devdoc": {
    "details": "Store & retrieve value in a variable",
    "methods": {
      "retrieve()": {
        "details": "Return value ",
        "return": "value of 'number'"
      },
      "store(uint256)": {
        "details": "Store value in variable",
        "params": {
          "num": "value to store"
        }
      }
    },
    "title": "Project"
  },
  "userdoc": {
    "methods": {}
  }
}