{
  "contractName": "SimpleStorage",
  "abi": [
    {
      "anonymous": false,
      "inputs": [
        {
          "indexed": false,
          "internalType": "uint256",
          "name": "newValue",
          "type": "uint256"
        }
      ],
      "name": "setEvent",
      "type": "event"
    },
    {
      "constant": false,
      "inputs": [
        {
          "internalType": "uint256",
          "name": "x",
          "type": "uint256"
        }
      ],
      "name": "set",
      "outputs": [],
      "payable": false,
      "stateMutability": "nonpayable",
      "type": "function"
    },
    {
      "constant": true,
      "inputs": [],
      "name": "get",
      "outputs": [
        {
          "internalType": "uint256",
          "name": "",
          "type": "uint256"
        }
      ],
      "payable": false,
      "stateMutability": "view",
      "type": "function"
    },
    {
      "constant": false,
      "inputs": [
        {
          "internalType": "uint256",
          "name": "x",
          "type": "uint256"
        }
      ],
      "name": "setStoredData",
      "outputs": [],
      "payable": false,
      "stateMutability": "nonpayable",
      "type": "function"
    }
  ],
  "bytecode": "0x608060405234801561001057600080fd5b50610149806100206000396000f3fe608060405234801561001057600080fd5b50600436106100415760003560e01c80632f9530f71461004657806360fe47b1146100745780636d4ce63c146100a2575b600080fd5b6100726004803603602081101561005c57600080fd5b81019080803590602001909291905050506100c0565b005b6100a06004803603602081101561008a57600080fd5b81019080803590602001909291905050506100ca565b005b6100aa61010b565b6040518082815260200191505060405180910390f35b8060008190555050565b806000819055507fec7b642afdc1c88606eb6b3aa47041e47aa03c1b643dde91027f2ba433efb5ff816040518082815260200191505060405180910390a150565b6000805490509056fea265627a7a72315820d3d11eab831e6c9a851f27b885ac146bfdb5d45e5a635dc847f71699d87b4c1464736f6c63430005100032",
  "source": "// SPDX-License-Identifier: MIT\npragma solidity >=0.4.22 <0.9.0;\n\ncontract SimpleStorage {\n  uint storedData;\n\n  event setEvent(uint newValue);\n\n  function set(uint x) public {\n    storedData = x;\n    emit setEvent(x);\n  }\n\n  function get() public view returns (uint) {\n    return storedData;\n  }\n\nfunction setStoredData(uint256 x) public {\n  storedData = x;\n}\n\n}",
  "sourcePath": "/home/ritrubia/blockchain-developer-bootcamp-final-project/contracts/SimpleStorage.sol",
  "compiler": {
    "name": "solc",
    "version": "0.5.16+commit.9c3226ce.Emscripten.clang"
  },
  "schemaVersion": "3.4.3",
  "updatedAt": "2021-12-12T10:13:52.511Z",
  "networkType": "ethereum",
  "devdoc": {
    "methods": {}
  },
  "userdoc": {
    "methods": {}
  }
}